:100000000C942A000C943F000C943F000C943F0089
:100010000C943F000C943F000C943F000C943F0064
:100020000C943F000C943F000C943F000C943F0054
:100030000C943F000C943F000C943F000C943F0044
:100040000C943F000C943F000C943F000C943F0034
:100050000C943F0011241FBECFE5D4E0DEBFCDBF1E
:1000600010E0A0E6B0E0E4EAF1E002C005900D92F5
:10007000A436B107D9F70E94BD000C94D0000C94AF
:100080000000AE98AF9A9BB3282F207F9F70922BD1
:100090009BBB00C000C00000AF98E9EFF0E03197D3
:1000A000F1F700C00000AF9A2BB3F0E18F9FC001C1
:1000B0001124922F9F70892B8BBB00C000C00000C1
:1000C000AF9889EF90E00197F1F700C00000089524
:1000D000AE9AAF9A9BB3282F207F9F70922B9BBB29
:1000E00000C000C00000AF98E9EFF0E03197F1F7F1
:1000F00000C00000AF9A2BB3F0E18F9FC001112424
:10010000922F9F70892B8BBB00C000C00000AF985E
:1001100089EF90E00197F1F700C000000895CF93B8
:10012000DF93EC018881882331F021960E946800DA
:1001300089918111FBCFDF91CF910895A69AA79A5B
:10014000D49AD59AD69AD79A87E893E10197F1F78E
:1001500000C0000082E00E94410088E20E9441004D
:100160008CE00E94410086E00E94410081E00E94F4
:10017000410080E80E94410008950E949E0080E8AE
:100180000E94410080E690E00E948F008CE10E9476
:10019000410087EA91E60197F1F700C00000EFCF38
:0401A000F894FFCF01
:0401A400564153006D
:00000001FF
