:100000000C942A000C9447000C9447000C94470071
:100010000C9447000C9447000C9447000C94470044
:100020000C9447000C9447000C9447000C94470034
:100030000C9447000C9447000C9447000C94470024
:100040000C9447000C9447000C9447000C94470014
:100050000C94470011241FBECFE5D4E0DEBFCDBF16
:1000600010E0A0E6B0E0EEE5F3E002C005900D92EE
:10007000A436B107D9F720E0A4E6B0E001C01D9294
:10008000A636B207E1F70E9462010C94AD010C9410
:100090000000AE98AF9A9BB39F70282F207F922BC1
:1000A0009BBBE9EFF0E03197F1F700C00000AF989B
:1000B000E9EFF0E03197F1F700C00000AF9A2BB301
:1000C0002F70F0E18F9FC0011124822B8BBB89EF31
:1000D00090E00197F1F700C00000AF98E9EFF0E081
:1000E0003197F1F700C000000895AE9AAF9A9BB324
:1000F0009F70282F207F922B9BBBE9EFF0E0319778
:10010000F1F700C00000AF98E9EFF0E03197F1F7A8
:1001100000C00000AF9A2BB32F70F0E18F9FC00199
:100120001124822B8BBB89EF90E00197F1F700C07F
:100130000000AF98E9EFF0E03197F1F700C0000060
:100140000895CF93DF93EC018881882331F02196C5
:100150000E94750089918111FBCFDF91CF910895A5
:100160004F925F926F927F929F92AF92BF92CF9287
:10017000DF92EF92FF920F931F93CF93DF93CDB750
:10018000DEB72C970FB6F894DEBF0FBECDBF6B0164
:100190007C01611571058105910529F480E389834E
:1001A0001A82912C4BC09B01AC01B12C0F2EFAE0AE
:1001B0004F2E512C612C712CF02D01C0B92C99249B
:1001C00093949B0CCA01B901A30192010E948B0177
:1001D000211531054105510589F7992041F1092D76
:1001E00010E0C801019721E030E02C0F3D1F020F05
:1001F000131FFC01EB19F1095F01A20EB31E0F2EB4
:10020000FAE04F2E512C612C712CF02DC701B60154
:10021000A30192010E948B01605DF80162938F013E
:10022000C22ED32EE42EF52EAE16BF0679F7FE01B0
:10023000E90DF11D11828981882379F010E00E9477
:1002400075001F5FE1E0F0E0EC0FFD1FE10FF11D15
:100250008081882311F0911690F72C960FB6F894B0
:10026000DEBF0FBECDBFDF91CF911F910F91FF90E9
:10027000EF90DF90CF90BF90AF909F907F906F9066
:100280005F904F900895A69AA79AD49AD59AD69A35
:10029000D79A87E893E10197F1F700C0000082E068
:1002A0000E94490088E20E9449008CE00E944900B7
:1002B00086E00E94490081E00E94490080E80E9497
:1002C000490008950E944301809164009091650067
:1002D0000196909365008093640080E80E94490035
:1002E00080E690E00E94A1002FE38DE093E0215092
:1002F00080409040E1F700C0000080EC0E9449007F
:100300006091640070916500072E000C880B990BBA
:100310000E94B000D9CFA1E21A2EAA1BBB1BFD017F
:100320000DC0AA1FBB1FEE1FFF1FA217B307E407D4
:10033000F50720F0A21BB30BE40BF50B661F771F2C
:10034000881F991F1A9469F760957095809590950C
:0E0350009B01AC01BD01CF010895F894FFCFD1
:04035E0056415300B1
:00000001FF
