:100000000C942A000C943F000C943F000C943F0089
:100010000C943F000C943F000C943F000C943F0064
:100020000C943F000C943F000C943F000C943F0054
:100030000C943F000C943F000C943F000C943F0044
:100040000C943F000C943F000C943F000C943F0034
:100050000C943F0011241FBECFE5D4E0DEBFCDBF1E
:1000600010E0A0E6B0E0ECEBF1E002C005900D92EC
:10007000A436B107D9F70E94C9000C94DC000C9497
:100080000000AE98AF9A9BB3282F207F9F70922BD1
:100090009BBBE9EFF0E03197F1F700C00000AF98AB
:1000A000E9EFF0E03197F1F700C00000AF9A2BB311
:1000B000F0E18F9FC0011124922F9F70892B8BBB81
:1000C00089EF90E00197F1F700C00000AF98E9EFE9
:1000D000F0E03197F1F700C000000895AE9AAF9AB2
:1000E0009BB3282F207F9F70922B9BBBE9EFF0E002
:1000F0003197F1F700C00000AF98E9EFF0E03197D9
:10010000F1F700C00000AF9A2BB3F0E18F9FC00160
:100110001124922F9F70892B8BBB89EF90E0019760
:10012000F1F700C00000AF98E9EFF0E03197F1F788
:1001300000C000000895CF93DF93EC0188818823ED
:1001400031F021960E946E0089918111FBCFDF91E1
:10015000CF910895A69AA79AD49AD59AD69AD79A63
:1001600087E893E10197F1F700C0000082E00E9468
:10017000410088E20E9441008CE00E94410086E03C
:100180000E94410081E00E94410080E80E944100FD
:1001900008950E94AA0080E80E94410080E690E055
:1001A0000E949B008CE10E94410087EA91E6019742
:0C01B000F1F700C00000EFCFF894FFCF83
:0401BC005641530055
:00000001FF
